:020000041000EA
:1000000090D80120E5040010C5230010B321001092
:10001000C3230010210F0010C94A00100000000087
:10002000000000000000000000000000613100102E
:10003000FD150010000000001D2400109531001077
:10004000F929001000000000000000003515001024
:10005000FF0E00100000000000000000C12300108F
:10006000000000000000000000000000FD0E001075
:10007000CD110010C7230010000000008D160010E5
:100080005D2200103B430010891B00108D1B0010E7
:10009000A54C0010010F0010ED4C00102132001093
:1000A0003132001041320010513200106132001024
:1000B000713200100000000000000000000000008D
:1000C00000000000591D00100000000000000000AA
:1000D000E91E00103D3100104D310010513100106B
:1000E00095440010A544001000000000000000002E
:1000F00023050010B9210010C9210010CD210010E6
:10010000C9230010D923001000000000F14900109D
:10011000D5440010E50E00100000000000000000B3
:100120002305001000000000E9230010EB2300105D
:1001300000000000000000000000000000000000BF
:1001400091160010A1160010B1160010C116001073
:10015000D1160010E1160010F11600100117001062
:08016000111700101B1700101D
:020000041000EA
:1004000000F002F800F05EF80AA090E8000C8244C8
:100410008344AAF10107DA4501D100F053F8AFF2A5
:10042000090EBAE80F0013F0010F18BFFB1A43F0D2
:1004300001031847D4740000F474000010F8013B65
:100440000A4413F0030408BF10F8014B1D1108BF44
:1004500010F8015B641E05D010F8016B641E01F8F2
:10046000016BF9D1002D15D010F8014B03F00C03EE
:100470000C2BA1EB04040ABF10F8013BA4EB83147E
:10048000A4EB032405F1010314F8016B5B1E01F8D2
:10049000016BF9D5914238BF10F8013BD1D37047B9
:1004A0000023002400250026103A28BF78C1FBD87D
:1004B000520728BF30C148BF0B6070471FB51FBD32
:1004C00010B510BD00F079FC1146FFF7F7FF04F0FE
:1004D000F3FC00F097FC03B4FFF7F2FF03BC00F05D
:1004E0009FFC000012491348086000BF4FF4806071
:1004F00000BF0138FCD10E494FF0004008604FF4B6
:10050000806000BF0138FCD10B4880470B48004792
:10051000FEE7FEE7FEE7FEE7FEE7FEE7FEE7FEE7B3
:10052000FEE7FEE706480749074A084B7047000008
:100530001080004000003F809D3100100104001039
:1005400090B7012090D8012090B8012090B80120E8
:10055000F0B4244C05790023E65CAE4204D1224C71
:1005600054F82330F0BC18475B1CDBB20E2BF3D3DE
:10057000F0BC002070470A7802710A79120202600A
:10058000CB781A44120202608B781A44120202607D
:100590004B781A4402604A794271897981717047B7
:1005A00010B5012814D111491148FFF7E4FF104993
:1005B0000120104C8872487A01280AD010B10879BD
:1005C000722805D10C4A09490948FFF7C1FF20806C
:1005D00010BD08797228F5D00749054800F0B4FA33
:1005E000F5E70000C0780010D078001060430021CB
:1005F000088301200A80012040420021704708B58D
:1006000040F6FC50009004226946002005F0FEF9F7
:1006100008BD00B585B04FF4165000904000019021
:10062000400002904FF46140039040000490142277
:100630006946002005F0EAF905B000BD012805D0A3
:10064000022802D0032801D1E3E7D8E77047000071
:1006500010B5029C207000206070A070E0702071C6
:100660006171A2714220E0710520207263720A203C
:1006700010BD1870002058709870D870187159719A
:100680009A714221D971FE21197258720A2070475D
:1006900038B50546D0796979144631B10092AA7906
:1006A00000238020FFF7D4FF38BDAB7A014604F168
:1006B0000A02184604F0DCFB90B1802121706070C2
:1006C0000021A170E17021716A796271AA79A27129
:1006D000E17121720A30617280B2A521297238BDA0
:1006E000AA79697923468020FFF7C3FF5A21F5E7ED
:1006F00038B541790546144639B100928279032311
:100700008120FFF7A5FF0A2038BDA87A04F0A8FBD6
:100710004FF081024FF0000122706170A170E17012
:10072000030621710ED56A796271AA79A271C20697
:1007300001D5012200E00222E271217200F00300E3
:10074000607207E068796071A879A0714020E0715B
:10075000217261725A202872D5E708B5417939B102
:100760000092827903238120FFF772FF0A2008BDDF
:1007700081211170002151709170D17011714379F4
:10078000537183799371007A5A2803D0D171117211
:100790005172EBE70120D07111725072E6E7F8B5A3
:1007A0000B4641790546144631B100928279002307
:1007B0008020FFF74DFFF8BD286803F10A0182B2DF
:1007C000A87A0F4604F0DAFA060017D00246394636
:1007D00004F10A0000F077FA802020706670300A79
:1007E000A0700020E070207169796171A979A17110
:1007F000E071207260720A36B0B2F8BDAA796979E8
:1008000001B02346BDE8F040802032E708B54179C9
:1008100031B10092827900238220FFF719FF08BDD1
:1008200082211170002151709170D1701171437942
:10083000537180799071D171117251720A2008BD83
:1008400008B5417931B10092827900238220FFF707
:10085000FFFE08BD822111700521517000219170A9
:10086000D17011714379537180799071D171117286
:10087000517211209072D172022010738020507337
:10088000032090730F2008BDF8B50F46D679417943
:100890000546144631B10092827900238220FFF789
:1008A000D7FEF8BD286807F10A02C3B2A87A174636
:1008B000314604F0EFFAC0B182202070052060704C
:1008C0000020A070E070207169796171A979A1712F
:1008D000E07120726672394604F10A002A6800F05D
:1008E000F2F928680A3080B2F8BDAA79697901B0B6
:1008F0002346BDE8F0408220BBE618B50B4641799F
:1009000039B10092827900238320FFF7A1FE0146CE
:1009100036E083211170002151709170D1701171F6
:1009200044795471847994710224D4711172517292
:1009300000680A21012823D1987A022820D11220A8
:100940005070472191726520D0726D20107354232E
:100950005373772090736920D0736E2010742D2408
:100960005474562090743220D0742E20107530208C
:1009700050759075D475117653769076D0761C218B
:10098000084618BD18B5CB79417931B1009282790A
:1009900000238120FFF75CFE1FE00021812413B1BA
:1009A000032B0DD019E0147051709170D17011713A
:1009B0004379537180799071D171117251720CE049
:1009C000147051709170D1701171437953718079A5
:1009D0009071D1711172032050720A2018BD38B580
:1009E000CB79417931B10092827900238120FFF7E0
:1009F0002FFE13E0DD074FF000014FF0810401D11D
:100A00009B070BD5147051709170D170117143799F
:100A1000537180799071D171117251720A2038BD71
:100A200080211170002151709170D1701171437942
:100A30005371807990714020D071117251720A20E7
:100A4000704718B5CB79417931B100928279002392
:100A50008120FFF7FDFD16E000218124042B02D048
:100A6000052B03D00FE00123C37100E0C1711470A6
:100A700051709170D1701171437953718079907177
:100A8000D171117251720A2018BD08B5417939B17E
:100A90000092827900238120FFF7DAFD0A2008BD49
:100AA0004C494B780021012B03D1437A012B00D113
:100AB00041728123137051709170D170117143791B
:100AC000537180799071D17111725172E6E7F8B566
:100AD0000E4641790546144631B1009282790023D1
:100AE0008420FFF7B5FDF8BDA87A06F10A0104F0ED
:100AF000B3F901004FF084024FF00000227015D0CE
:100B000008216170A070E070207169796171A97924
:100B1000A171E07120726072D6F80A00C4F80A0070
:100B2000D6F80E00C4F80E001220F8BD6070A07058
:100B3000E070207169796171A979A1714021E17139
:100B4000207260720A20F8BD30B50279002341247A
:100B5000FF25622A18D06F2A16D0692A14D0632A7A
:100B600014D0652A12D06E2A10D06A2A0ED0712AAB
:100B70000CD06C2A0CD06D2A0AD0612A08D0832AA6
:100B800009D0732A06D012E0802204E0812202E01C
:100B9000822200E084220A704B708B70CB700B7144
:100BA00042794A7180798871CC710D724B720A203A
:100BB00030BD10B580241C7001245C7000249C7032
:100BC000DC701C7158719971DC711C725C729A72C4
:100BD0000B2010BD1483012053EA020C00F0698041
:100BE0002DE9F04B4FF00006002B1FBFB3FA83F541
:100BF00003FA05F424FA05F65E4012BF1643B2FA72
:100C000082F502FA05F4C5F120051EBF22FA05FCA3
:100C100044EA0C04203556EA044C4FEA144418BF49
:100C2000641C4FF000084FF00009904271EB030C78
:100C300039D3002919BFB1FA81F701FA07F6B0FAE2
:100C400080F700FA07F6C7F120071EBF20FA07FC5D
:100C500046EA0C062037B6FBF4FCA7EB0507103F6D
:100C600007F01F0BCBF120060CFA0BFB2CFA06F653
:100C700044BFB3460026202FA4BF5E464FF0000BB2
:100C80005BEA060C08BF4FF0010B19EB0B09ABFB3D
:100C9000027C48EB0608C01B06FB02CC0BFB03CC16
:100CA00071EB0C01C1E70B46024641464846BDE8E0
:100CB000F08B13B54FF000004FF00001AFF3008050
:100CC000BDE81C407047032A40F2308010F0030C4E
:100CD00000F0158011F8013BBCF1020F624498BF8F
:100CE00011F801CB00F8013B38BF11F8013BA2F12C
:100CF000040298BF00F801CB38BF00F8013B11F0A7
:100D0000030300F02580083AC0F0088051F8043B46
:100D1000083A51F804CBA0E80810F5E7121D5CBFB3
:100D200051F8043B40F8043BAFF30080D20724BFE6
:100D300011F8013B11F801CB48BF11F8012B24BF7A
:100D400000F8013B00F801CB48BF00F8012B7047C9
:100D500010B5203AC0F00B80B1E81850203AA0E856
:100D60001850B1E81850A0E81850BFF4F5AF5FEA8A
:100D7000027C24BFB1E81850A0E8185044BF18C93D
:100D800018C0BDE810405FEA827C24BF51F8043BE4
:100D900040F8043B08BF7047D20728BF31F8023B38
:100DA00048BF11F8012B28BF20F8023B48BF00F8CC
:100DB000012B7047704770477047754600F02CF85C
:100DC000AE4605006946534620F00700854618B038
:100DD00020B5FFF7A7FBBDE820404FF000064FF01D
:100DE00000074FF000084FF0000B21F00701AC4660
:100DF000ACE8C009ACE8C009ACE8C009ACE8C0097F
:100E00008D46704710B50446AFF300802046BDE81C
:100E10001040FFF760BB00000048704730B701206A
:100E200001491820ABBEFEE7260002007047000013
:100E3000014988607047000000008240012806D107
:100E40000649496841F00101044A516005E003493F
:100E5000496821F00101014A516070470000824059
:100E6000012905D1054AD2688243044BDA6004E0C7
:100E7000024AD2680243014BDA60704700008240A8
:100E800010B54FF4803000F0D9FA012803D10C4995
:100E9000886902F0BDFA4FF4003000F0CFFA012863
:100EA00003D10749C86902F0B3FA4FF4802000F07B
:100EB000C5FA012803D10249086A02F0A9FA10BD57
:100EC0001C89012010B50020FFF7B8FF4FF4807097
:100ED00001F05AFB00BF4FF4807001F017FB0028AF
:100EE000F9D010BD10B500F001F810BD10B50248E2
:100EF00002F011FA10BD00001C89012070477047F4
:100F000000BFFEE7012805D1AA21044A1160CC21C7
:100F1000116002E00021014A116070470040074063
:100F20007047000038B500205F4908705F4840787E
:100F300057287DD008DC2E2817D0302879D03E28BD
:100F400014D0502876D10DE058283BD0842802D008
:100F5000CD28F7D1A4E05548017955480268554895
:100F600090479DE002F0FEF89AE000BF0020524951
:100F70008860402048605148006851490968441819
:100F80004C4840784B49097800EB01204D490880D6
:100F9000C4F31300B0F5002F03D9062042490870AE
:100FA00038BD6FF07F43444A46480188204602F02E
:100FB000CCFB454908700846007810B106203A4934
:100FC00008706DE04FF48040404908604000486080
:100FD0003A4800683A4909684418C4F31300B0F568
:100FE000002F03D90620304908704CE024F07040EF
:100FF000B0F5007F31D22D490A793549304B1B6855
:10100000C8182C49FFF75FFE24F0704020BB72B671
:101010006FF07F43284A0121204602F096FB2A49BF
:1010200008700846007830B106201F490870B7E7FD
:1010300031E029E030E06FF07F40244B402224492A
:101040000090900502F0D1FB1F4908700846007817
:1010500010B106201449087015E0144805796FF0A6
:101060007F400090E81705EB5070C210174B1149F4
:10107000204602F0BAFB144908700846007810B107
:101080000620094908700BE008480179094A204602
:1010900000F03EF804E003E002200349087000BFBE
:1010A00000BF00BF7CE700001C80012024800120DD
:1010B0000401001A2083012088AA01202C8001202D
:1010C000208001202A8001203080012050820120D0
:1010D0002084012010B502460C4B1B6898B20B4BC4
:1010E0001B6898B205E01378084C2360521C4B1E15
:1010F00099B20029F7D1054B1B684FF6FF7404EA3B
:101100000320024B1B68034498B210BD004082408C
:101110002DE9F05F04460F4615464FF00008012107
:10112000480201F0ADF9B4F5002F0BD324488442F6
:1011300002D2B4F1805F05D2B4F1F85F35D3214813
:10114000844232D2042F03DA04201F4908702FE0B2
:101150006878297800EB012040441FFA80F8B81E17
:10116000C0F34F0B00261DE0022000EB460015F8EF
:1011700000A04FF6FF7000EA0A2A032000EB4600A9
:10118000285C50441FFA80FA41462046FFF7A2FF30
:101190008146D14503D008200B49087004E044443F
:1011A000701C86B25E45DFDB02E00A20064908704B
:1011B00000214FF4007001F063F9BDE8F09F0000DA
:1011C00000000810FF09001F1C800120704700006C
:1011D00010B50446012C25D0B4F5807F22D0022C16
:1011E00020D0B4F5007F1DD0042C1BD0B4F5806F47
:1011F00018D0082C16D0B4F5006F13D0102C11D0D5
:10120000B4F5805F0ED0202C0CD0B4F5005F09D06F
:10121000402C07D0B4F5804F04D0802C02D0B4F518
:10122000004F00D104E040F2412107A003F0A4FDEB
:10123000FF2C04D9240A4FF08340046102E04FF0F0
:101240008340846010BD00002E2E5C2E2E5C2E2E5E
:101250005C447269766572735C48414C5C7372637E
:101260005C646D612E63000070B504460D461C4839
:1012700084421BD01A482030844217D0184840308E
:10128000844213D01648603084420FD01448803016
:1012900084420BD01248A030844207D01048C0309E
:1012A000844203D00E482038844200D104E040F24A
:1012B00029110CA003F060FD0DB1012D00D104E057
:1012C0004FF4957107A003F057FD25B1206940F058
:1012D0000100206103E0206920F00100206170BD61
:1012E000200180412E2E5C2E2E5C2E2E5C447269D5
:1012F000766572735C48414C5C7372635C646D61CB
:101300002E63000070B504460025174884421BD0A8
:1013100015482030844217D013484030844213D0FF
:101320001148603084420FD00F48803084420BD087
:101330000D48A030844207D00B48C030844203D00F
:1013400009482038844200D104E040F25A2107A025
:1013500003F012FD206900F0010008B9002500E04B
:101360000125284670BD0000200180412E2E5C2EF4
:101370002E5C2E2E5C447269766572735C48414C1B
:101380005C7372635C646D612E63000070B504462B
:101390000025012C25D0022C23D0042C21D0082C90
:1013A0001FD0102C1DD0202C1BD0402C19D0802CED
:1013B00017D0B4F5807F14D0B4F5007F11D0B4F508
:1013C000806F0ED0B4F5006F0BD0B4F5805F08D0FD
:1013D000B4F5005F05D0B4F5804F02D0B4F5004FEE
:1013E00000D104E040F2A3110CA003F0C5FCFF2CD7
:1013F00009D9240A4FF083408069204008B10125B3
:1014000009E0002507E04FF083404069204008B123
:10141000012500E00025284670BD00002E2E5C2E20
:101420002E5C2E2E5C447269766572735C48414C6A
:101430005C7372635C646D612E63000070B504467A
:101440000025B4F5803F3CD0012C3AD0B4F5807F24
:1014500037D0B4F5003F34D0022C32D0B4F5007F41
:101460002FD0B4F5802F2CD0042C2AD0B4F5806F67
:1014700027D0B4F5002F24D0082C22D0B4F5006F6B
:101480001FD0B4F5801F1CD0102C1AD0B4F5805F8B
:1014900017D0B4F5001F14D0202C12D0B4F5005F83
:1014A0000FD0B4F5800F0CD0402C0AD0B4F5804F8B
:1014B00007D0B4F5000F04D0802C02D0B4F5004F53
:1014C00000D104E04FF4FA7112A003F055FCB4F51A
:1014D000803F09D3240C4FF083400068204008B1BE
:1014E000012515E0002513E0FF2C09D9240A4FF04F
:1014F0008340C068204008B1012509E0002507E0CD
:101500004FF083404068204008B1012500E00025ED
:10151000284670BD2E2E5C2E2E5C2E2E5C447269E9
:10152000766572735C48414C5C7372635C646D6198
:101530002E63000010B500F05BF810BD70B50446D6
:101540000D461646214884421BD020482030844254
:1015500017D01E484030844213D01C48603084426B
:101560000FD01A48803084420BD01848A0308442F3
:1015700007D01648C030844203D014482038844233
:1015800000D104E04FF4B47111A003F0F5FBB5F500
:10159000004F02D0B5F5804F00D104E040F2691150
:1015A0000BA003F0E9FB0EB1012E00D104E04FF4D3
:1015B000B57107A003F0E0FB1EB12069284320614C
:1015C00002E02069A843206170BD00002001804135
:1015D0002E2E5C2E2E5C2E2E5C4472697665727304
:1015E0005C48414C5C7372635C646D612E63000007
:1015F00010B5014CA04710BD810E001070470000CF
:10160000014908607047000004C40540012905D164
:10161000054A12688243044B1A6004E0024A1268C9
:101620000243014B1A60704708C405400146044854
:101630000068084008B1012070470020FCE7000066
:1016400004C40540012806D10649096841F0020199
:10165000044A116005E00349096821F00201014ACA
:101660001160704700C40540012806D10649096889
:1016700041F00101044A116005E00349096821F0C5
:101680000101014A1160704700C4054000BFFEE738
:1016900010B5024801F096FF10BD0000CCB6012045
:1016A00010B5024801F0AFFF10BD0000CCB601201C
:1016B00010B5024801F0C6FF10BD0000CCB60120F5
:1016C00010B5024801F0DFFF10BD0000CCB60120CC
:1016D00010B5024801F0F8FF10BD0000CCB60120A3
:1016E00010B5024802F027F810BD0000CCB601206A
:1016F00010B5024802F014F810BD0000CCB601206D
:1017000010B5024802F001F810BD0000CCB601206F
:1017100010B5102000F06CF810BD10B5202000F0BE
:1017200067F810BD70B505460C46012C29D0022C77
:1017300027D0042C25D0082C23D0102C21D0202CED
:101740001FD0402C1DD0802C1BD0B4F5807F18D02A
:10175000B4F5007F15D0B4F5806F12D0B4F5006FEA
:101760000FD0B4F5805F0CD0B4F5005F09D0B4F5AC
:10177000804F06D0B4F5004F03D04FF6FF7084427F
:1017800000D104E040F2DB2111A003F0F5FA052DB1
:101790001AD2DFE805F003070C1015004FF04020C7
:1017A000046512E020044FF0402108650DE04FF081
:1017B0004020446509E020044FF04021486504E0E2
:1017C0004FF04020846500E000BF00BF70BD000006
:1017D0002E2E5C2E2E5C2E2E5C4472697665727302
:1017E0005C48414C5C7372635C657874692E63007D
:1017F00000F0010119B101214FF04022D16500F044
:10180000020119B102214FF04022D16500F004011C
:1018100019B104214FF04022D16500F0100119B137
:1018200008214FF04022D16500F0200119B11021AC
:101830004FF04022D165704770B504460D46012C2B
:1018400019D0022C17D0042C15D0402C13D0802C8A
:1018500011D0B4F5807F0ED0B4F5007F0BD0B4F575
:10186000806F08D0B4F5006F05D0B4F5805F02D06A
:10187000B4F5005F00D104E04FF4CE717DA003F019
:101880007BFA012D7BD104F0010038B14FF04020EC
:10189000C06840F001004FF04021C86004F0020031
:1018A00038B14FF04020C06840F002004FF04021B6
:1018B000C86004F0040038B14FF04020C06840F028
:1018C00004004FF04021C86004F0400038B14FF0F0
:1018D0004020C06840F008004FF04021C86004F08C
:1018E000800038B14FF04020C06840F010004FF049
:1018F0004021C86004F4807038B14FF04020C069C6
:1019000040F008004FF04021C86104F4007038B185
:101910004FF04020C06940F010004FF04021C861F6
:1019200004F4806038B14FF04020C06A40F00800F5
:101930004FF04021C86204F4006038B14FF04020FD
:10194000C06A40F010004FF04021C86204F480509B
:1019500038B14FF04020C06B40F008004FF04021FC
:10196000C86304F40050002807D04FF04020C06B3B
:1019700040F010004FF04021C86379E0FFE704F029
:10198000010038B14FF04020C06820F001004FF056
:101990004021C86004F0020038B14FF04020C06818
:1019A00020F002004FF04021C86004F0040038B17C
:1019B0004FF04020C06820F004004FF04021C86084
:1019C00004F0400038B14FF04020C06820F008001B
:1019D0004FF04021C86004F0800038B14FF0402043
:1019E000C06820F010004FF04021C86004F48070FF
:1019F00038B14FF04020C06920F008004FF040217E
:101A0000C86104F4007038B14FF04020C06920F084
:101A100010004FF04021C86104F4806038B14FF0ED
:101A20004020C06A20F008004FF04021C86204F452
:101A3000006038B14FF04020C06A20F010004FF035
:101A40004021C86204F4805038B14FF04020C06B90
:101A500020F008004FF04021C86304F4005038B172
:101A60004FF04020C06B20F010004FF04021C863C1
:101A700070BD00002E2E5C2E2E5C2E2E5C447269F2
:101A8000766572735C48414C5C7372635C65787414
:101A9000692E630070B505460C46012C29D0022C36
:101AA00027D0042C25D0082C23D0102C21D0202C7A
:101AB0001FD0402C1DD0802C1BD0B4F5807F18D0B7
:101AC000B4F5007F15D0B4F5806F12D0B4F5006F77
:101AD0000FD0B4F5805F0CD0B4F5005F09D0B4F539
:101AE000804F06D0B4F5004F03D04FF6FF7084420C
:101AF00000D104E040F269211BA003F03DF9052D5F
:101B00002ED2DFE805F0030B141C25004FF0402017
:101B1000006D204008B1012070BD22E04FF0402050
:101B2000006D00EA044008B10120F5E719E04FF02C
:101B30004020406D204008B10120EDE711E04FF05A
:101B40004020406D00EA044008B10120E4E708E0CD
:101B50004FF04020806D204008B10120DCE700E01C
:101B600000BF00BF0020D7E72E2E5C2E2E5C2E2E4D
:101B70005C447269766572735C48414C5C73726355
:101B80005C657874692E63007047000010B50248E8
:101B900002F017FA10BD0000A8B5012010B50446E8
:101BA00004F0020058B904F0010040B904F0040048
:101BB00028B904F0080010B904F0100000B103E0E7
:101BC000D2210DA003F0D8F804F0010004F00201C6
:101BD00008431249096808431049086004F00400EA
:101BE00004F00801084304F0100108430B49496858
:101BF00008430A49486010BD2E2E5C2E2E5C2E2E06
:101C00005C447269766572735C48414C5C737263C4
:101C10005C666C6173682E63000000000040084041
:101C200010B5044604F0020058B904F0010040B9B0
:101C300004F0040028B904F0080010B904F0100002
:101C400000B103E0B82108A003F096F80F4800683F
:101C5000204008B1012010BD0C484068204008B168
:101C60000120F8E70020F6E72E2E5C2E2E5C2E2EAB
:101C70005C447269766572735C48414C5C73726354
:101C80005C666C6173682E630000000000400840D1
:101C90002DE9F041044616461F46069D05B103E0B6
:101CA000392121A003F068F8B4F1805F02D32748FE
:101CB000844206D92648844204D32548FF30844212
:101CC00000D803E03B2118A003F056F804F0070009
:101CD00000B903E03D2114A003F04EF82868B0F5E8
:101CE000804F01D0286800B903E03F210EA003F027
:101CF00043F86868B0F5004F01D0686800B903E0A8
:101D0000412109A003F038F8286840F48070696820
:101D1000084310490863AA200862552048622660DB
:101D20006760BDE8F08100002E2E5C2E2E5C2E2E0A
:101D30005C447269766572735C48414C5C73726393
:101D40005C666C6173682E6300000000FFFF071083
:101D50000003001F004008407047000010B5044613
:101D60006FF44010844208D0B4F5801F05D0B4F55C
:101D7000001F02D0B4F5401F00D104E040F203116F
:101D800011A002F0F9FF1948006B20F44010174928
:101D90000863012C05D10846006B40F480100863ED
:101DA00010E0022C06D11148006B40F400100F49DE
:101DB000086307E0032C05D10C48006B40F4401089
:101DC0000A49086310BD00002E2E5C2E2E5C2E2EBC
:101DD0005C447269766572735C48414C5C737263F3
:101DE0005C666C6173682E63000000000040084070
:101DF000012904D1826822F00202826003E0826835
:101E000042F0020282607047012904D1826822F008
:101E10000102826003E0826842F001028260704742
:101E200070B505460C4604B103E0582118A002F035
:101E3000A3FF2068102801D0206800B903E05921D1
:101E400013A002F099FF6068402801D0606800B9D3
:101E500003E05B210EA002F08FFFA068802801D074
:101E6000A06800B903E05D2109A002F085FF2068A9
:101E700040F00500A1680843616808430D49086304
:101E800055200862AA2048624FF0FF30286070BDDC
:101E90002E2E5C2E2E5C2E2E5C447269766572733B
:101EA0005C48414C5C7372635C666C6173682E6362
:101EB0000000000000400840012904D1026822F01F
:101EC0000202026003E0026842F002020260704710
:101ED000012904D1026822F00102026003E00268D5
:101EE00042F0010202607047704700002DE9F041A6
:101EF00004460D4600260027B046504884420BD0C9
:101F00004F48844208D04F48844205D04E4884420E
:101F100002D04E48844200D103E084214CA002F05C
:101F20002BFF686828B16868012802D06868022819
:101F300000D103E0852146A002F01EFFA86840B151
:101F4000A868012805D0A868022802D0A86803283C
:101F500000D103E086213EA002F00EFFE86828B120
:101F6000E868012802D0E868022800D103E0872150
:101F700037A002F001FF286910B12869012800D1BB
:101F800003E0882132A002F0F7FE686910B16869A9
:101F9000012800D103E089212DA002F0EDFE0026EA
:101FA00048E0012000FA06F7286800EA0708B8456B
:101FB0003FD1206872000321914088432060686807
:101FC000710088402168084320606868012802D0B9
:101FD000686802280BD1A0687200032191408843F1
:101FE000A060A86871008840A1680843A060E0680C
:101FF0007200032191408843E060E86871008840E6
:10200000E1680843E06061680120B040814361609D
:1020100060682969B14089B208436060206A012183
:10202000B14088432062216A6869B04080B20143B0
:102030002162761C102EB4D3BDE8F08100800141EE
:102040000084014100880141008C01410090014160
:102050002E2E5C2E2E5C2E2E5C4472697665727379
:102060005C48414C5C7372635C6770696F2E6300FF
:102070002DE9F04104460D4617466E003A48844269
:102080000BD03A48844208D03948844205D03948B8
:10209000844202D03848844200D104E04FF49D715C
:1020A00036A002F069FEEDB1012D1BD0022D19D032
:1020B000032D17D0042D15D0052D13D0062D11D0CA
:1020C000072D0FD0082D0DD0092D0BD00A2D09D0CA
:1020D0000B2D07D00C2D05D00D2D03D00E2D01D0CA
:1020E0000F2D00D104E040F23B1124A002F044FE89
:1020F00037B1012F10D0022F1AD0032F30D123E097
:10210000E1690120B0408143E161E069711C012275
:102110008A409043E06123E0E1690120B04001433F
:10212000E161E069711C01228A409043E06117E09F
:10213000E0690121B1408843E061E069711C01223E
:102140008A401043E0610BE0E1690120B0400143A7
:10215000E161E069711C01228A401043E06100BF27
:1021600000BFBDE8F0810000008001410084014112
:1021700000880141008C0141009001412E2E5C2E0F
:102180002E5C2E2E5C447269766572735C48414CFD
:102190005C7372635C6770696F2E63000149097834
:1021A0000170704724FE07104FF0F851097A017052
:1021B000704700BFFEE7000010B5024801F0DAFBEF
:1021C00010BD00002C8601207047000010B50248A9
:1021D00001F0D0FB10BD00002C86012010B50121BC
:1021E000022000F0F9FE0121080400F0ADFE0121FB
:1021F000880300F0A9FE174801220F210368FF2081
:1022000098470121084600F00BF901F0E3FA00209D
:1022100001F050FB4FF0FF30002807DB00F01F02F9
:10222000012191400C4A430942F8231000BF4FF0AE
:10223000FF30002809DB00F01F0201219140420914
:10224000920002F1E022C2F8001100BF02F01EFB72
:1022500010BD00000001001A80E200E0704700009D
:10226000012912D1012806D1114A126822F0010277
:10227000104BC3F82421022819D10D4A126822F00C
:1022800002020C4BC3F8242111E0012806D1084AB0
:10229000126842F00102074BC3F82421022806D13C
:1022A000034A126842F00202024BC3F8242170472D
:1022B0002401074000000740014604480068084028
:1022C00008B1012070470020FCE700002001074012
:1022D000012914D100F0010232B1134A126822F030
:1022E0000102124BC3F8142100F00202DAB10E4AC7
:1022F000126822F002020D4BC3F8142113E000F023
:10230000010232B1084A126842F00102074BC3F8D9
:10231000142100F0020232B1034A126842F00202B4
:10232000024BC3F814217047140107400000074016
:10233000014604480068084008B1012070470020A9
:10234000FCE7000010010740012914D100F0010250
:1023500032B1134A126822F00102124BC3F8042171
:1023600000F00202DAB10E4A126822F002020D4BAE
:10237000C3F8042113E000F0020232B1084A1268E7
:1023800042F00102074BC3F8042100F0020232B10F
:10239000034A126842F00202024BC3F8042170475C
:1023A0000401074000000740014604480068084057
:1023B00008B1012070470020FCE700000001074041
:1023C000704770477047704710B5024801F0E4FA53
:1023D00010BD000088AC012010B5024801F0DCFA05
:1023E00010BD000088AC01207047704781607047C5
:1023F000012904D1026842F00102026003E0026890
:1024000022F0010202607047012A03D1C3688B43A6
:10241000C36002E0C3680B43C360704770470000AD
:1024200070B504460D46012C04D0082C02D0B4F53A
:10243000803F00D104E040F2435108A002F09CFC30
:102440002DB10E48006820430C49086004E00B4899
:102450000068A0430949086070BD00002E2E5C2E64
:102460002E5C2E2E5C447269766572735C48414C1A
:102470005C7372635C7263632E630000300C004017
:1024800070B504460D46012C1AD0022C18D0082C29
:1024900016D0102C14D0202C12D0402C10D0802C10
:1024A0000ED0B4F5807F0BD0B4F5007F08D0B4F522
:1024B000806F05D0B4F5006F02D0B4F5805F00D115
:1024C00004E04FF4B06108A002F056FC2DB10E48B4
:1024D000006820430C49086004E00B480068A043F2
:1024E0000949086070BD00002E2E5C2E2E5C2E2E39
:1024F0005C447269766572735C48414C5C737263CC
:102500005C7263632E630000340C004010B5044617
:10251000012C1AD0022C18D0082C16D0102C14D054
:10252000202C12D0402C10D0802C0ED0B4F5807FFF
:102530000BD0B4F5007F08D0B4F5806F05D0B4F5AA
:10254000006F02D0B4F5805F00D104E040F2C961B1
:1025500005A002F011FC4FF080404068204008B117
:10256000012010BD0020FCE72E2E5C2E2E5C2E2EAE
:102570005C447269766572735C48414C5C7372634B
:102580005C7263632E63000010B50446012C1AD000
:10259000022C18D0082C16D0102C14D0202C12D0BD
:1025A000402C10D0802C0ED0B4F5807F0BD0B4F529
:1025B000007F08D0B4F5806F05D0B4F5006F02D06D
:1025C000B4F5805F00D104E040F2AF6105A002F0F5
:1025D000D3FB4FF080404068A0434FF080414860FB
:1025E00010BD00002E2E5C2E2E5C2E2E5C447269D7
:1025F000766572735C48414C5C7372635C726363B2
:102600002E63000070B504460D46022C0ED0042C3B
:102610000CD0082C0AD0402C08D0B4F5007F05D08F
:10262000B4F5806F02D0B4F5006F00D104E04FF430
:10263000B86108A002F0A0FB2DB10E48006820434D
:102640000C49086004E00B480068A0430949086091
:1026500070BD00002E2E5C2E2E5C2E2E5C44726906
:10266000766572735C48414C5C7372635C72636341
:102670002E630000380C004030B10749096841F072
:102680001001054A116005E00349096821F01001B5
:10269000014A116070470000000C004008B500209E
:1026A000009018E0002000900120FFF7E5FF02E015
:1026B0000098401C00900848006800F0200010B905
:1026C0000098C128F4D30098C12803D30020FFF755
:1026D000D3FF00E008BDE5E7000C004001460529F6
:1026E0002DD2DFE801F0030B131B2300164800680E
:1026F00000F0020008B10120704721E01248006894
:1027000000F0080008B10120F6E719E00E48006863
:1027100000F0200008B10120EEE711E00B4800684E
:1027200000F0100008B10120E6E709E00748001DAD
:10273000006800F0040008B10120DDE700E000BF00
:1027400000BF0020D8E70000000C00400C1800403B
:102750000249096801F0030070470000040C0040C2
:102760000FB51248006800F0030008B91048039044
:102770000E48006800F00300012801D10C480390C6
:102780000A480068C0F38100401C019007480068B7
:10279000C0F3061000900099039848430199B0FBDC
:1027A000F1F00290029804B000BD0000040C00405B
:1027B000001BB7002DE9F05F4FF00009CA46CB4679
:1027C00000242A480068C0F304242848006800F068
:1027D000070020B101280CD003283DD104E0601C83
:1027E0002349B1FBF0FB3CE0601C2149B1FBF0FB4D
:1027F00037E01E481C380068C0F3810000F1010971
:102800001A481C380068C0F3061A18481C380068BB
:1028100000F0030001280FD11548A0FB0A70014603
:102820004A4600233846FEF7D7F90546621C0023C6
:10283000FEF7D2F983460EE00D48A0FB0A50014690
:102840004A4600232846FEF7C7F90746621C0023C4
:10285000FEF7C2F9834604E0601C0549B1FBF0FBBA
:1028600000BF00BF5846BDE8F09F0000200C0040AC
:10287000001BB7000C4A1268C2F3042105290ED2CE
:10288000DFE801F0030507090B00012009E0022041
:1028900007E0042005E0082003E0102001E02020EC
:1028A00000BF00BF70470000200C004002490968CB
:1028B00001F0070070470000200C00403F4A1268FA
:1028C00022F004023D4B1A6001B97047027A42B10E
:1028D0003A4A0C32126842F00802384B0C331A6044
:1028E00007E0364A0C32126822F00802334B0C33F0
:1028F0001A60027842B1314A0C32126842F0080282
:102900002E4B0C331A6007E02C4A0C32126822F06E
:1029100008022A4B0C331A60284A0C32126822F043
:102920000602264B0C331A60254B42689A420AD3A2
:10293000244B42689A4206D8204A0C3212681F4B38
:102940000C331A6031E01F4B42689A420CD95B008D
:1029500042689A4208D8194A0C32126842F00202C0
:10296000164B0C331A6020E0174B42689A420CD980
:10297000164B42689A4208D8104A0C32126842F04C
:1029800004020E4B0C331A600FE0104B42689A425F
:102990000BD90F4B42689A4207D8084A0C3212688A
:1029A00042F00602054B0C331A60044A126842F0EA
:1029B0000402024B1A6000BF87E70000000C0040D1
:1029C00040420F00001BB70000366E0180DE80021F
:1029D0008014EF0330B10749096841F00101054A4D
:1029E000116005E00349096821F00101014A116005
:1029F00070470000000C00407047000031B10E4AE3
:102A0000126842F002020C4B1A6005E00A4A126892
:102A100022F00202084B1A6030B1074A126842F0F5
:102A20000102054B1A6005E0034A126822F0010218
:102A3000014B1A60704700001018004030B1074980
:102A4000096841F00101054A116005E00349096880
:102A500021F00101014A1160704700000C1800408C
:102A600030B10749096841F01001054A116005E0DD
:102A70000349096821F01001014A11607047000004
:102A8000000C00402DE9FE430446206910B1206986
:102A9000012800D104E040F27231FAA002F06CF992
:102AA000A068022808D0A068042805D0A0680628DD
:102AB00002D0A068082800D104E040F27331F1A0F0
:102AC00002F05AF960680A2802D260687F2800D8AC
:102AD00004E04FF45D71EBA002F04EF9206801288C
:102AE00008D02068022805D02068032802D020687A
:102AF000042800D104E040F27531E2A002F03CF974
:102B0000E848006820F00300E6490860206918B929
:102B100008460068086023E0206901281ED1FFF7FD
:102B2000C5FE032813D001208DF8000000208DF889
:102B30000800DD48019001216846FFF7BFFE00BF95
:102B4000D848001F006800F008000028F8D0D548D9
:102B5000006840F00100D349086001E0BDE8FE8351
:102B6000D048006820F44040CE490860A0680228A0
:102B700006D0042809D006280ED008281AD112E061
:102B8000C8480068C749086015E0C648006840F4B6
:102B90008040C44908600EE0C248006840F400402C
:102BA000C049086007E0BF48006840F44040BD49A4
:102BB000086000E000BF00BFBA48006820F00C00C9
:102BC000B84908602068012806D0022809D00328E7
:102BD0000ED004281AD112E0B2480068B14908604A
:102BE00015E0B048006840F00400AE4908600EE00F
:102BF000AC48006840F00800AA49086007E0A9480E
:102C0000006840F00C00A749086000E000BF00BF6A
:102C1000A448006820F4FE60A249086008460068E5
:102C2000616840EA01109F490860206804F072FB67
:102C30008046606804F06EFB8146E16804F0B2FBF8
:102C40000746414604F084FA0646984904F080FAA3
:102C500005469749284604F071FB04D800209149A5
:102C6000091D086065E12946914804F067FB09D217
:102C70009049284604F062FB04D801208949091DC7
:102C8000086056E129468B4804F058FB09D28A496E
:102C9000284604F053FB04D802208249091D08602D
:102CA00047E12946844804F049FB09D28349284674
:102CB00004F044FB04D803207A49091D086038E178
:102CC00029467E4804F03AFB09D27D49284604F0A3
:102CD00035FB04D804207349091D086029E1294601
:102CE000774804F02BFB09D27649284604F026FBEE
:102CF00004D805206B49091D08601AE1294671486E
:102D000004F01CFB09D27049284604F017FB04D8D4
:102D100006206449091D08600BE129466A4804F051
:102D20000DFB09D26949284604F008FB04D80720A6
:102D30005C49091D0860FCE02946644804F0FEFA7D
:102D400009D26349284604F0F9FA04D80820554905
:102D5000091D0860EDE029465D4804F0EFFA09D24C
:102D60005C49284604F0EAFA04D809204D49091DB7
:102D70000860DEE02946574804F0E0FA09D25649D7
:102D8000284604F0DBFA04D80A204649091D0860E9
:102D9000CFE02946504804F0D1FA09D24F492846DD
:102DA00004F0CCFA04D80B203E49091D0860C0E0AD
:102DB00029464A4804F0C2FA09D24949284604F093
:102DC000BDFA04D80C203749091D0860B1E0294636
:102DD000434804F0B3FA09D24249284604F0AEFA57
:102DE00004D80D202F49091D0860A2E029463D485E
:102DF00004F0A4FA09D23C49284604F09FFA04D80A
:102E00000E202849091D086093E02946364804F041
:102E100095FA09D23549284604F090FA04D80F20D3
:102E20002049091D086084E02946304804F086FAEC
:102E300009D22F49284604F081FA04D810201949F4
:102E4000091D086075E02946294804F077FA09D27F
:102E50002849284604F072FA04D811201149091DA6
:102E6000086066E02946234804F068FA46D2224901
:102E7000284604F063FA41D812200A49091D086067
:102E800057E000002E2E5C2E2E5C2E2E5C447269C4
:102E9000766572735C48414C5C7372635C72636309
:102EA0002E630000040C0040001BB700002474498E
:102EB0000000484200005C42000070420000964260
:102EC0000000A0420000AA420000B4420000BE423E
:102ED0000000C8420000D2420000DC420000E6428E
:102EE0000000F0420000024300000C4300001643C3
:102EF0000000204300002A430000344329460E48C6
:102F000004F01CFA08D20D49284604F017FA03D839
:102F100013200B4908600CE02946084804F00EFA1B
:102F200007D20849284604F009FA02D814200449B7
:102F3000086000BF12E600000000344300003E437A
:102F4000080C00400000484370B504460D46022CB2
:102F50001CD0042C1AD0B4F5805F17D0B4F5005FF4
:102F600014D0B4F5804F11D0B4F5803F0ED0B4F535
:102F7000002F0BD0B4F5401F08D0B4F5800F05D05A
:102F8000B4F5000F02D0B4F1805F00D104E040F24C
:102F9000FF5108A001F0F0FE2DB10E48006820435B
:102FA0000C49086004E00B480068A0430949086028
:102FB00070BD00002E2E5C2E2E5C2E2E5C4472699D
:102FC000766572735C48414C5C7372635C726363D8
:102FD0002E6300003C0C004070B504460D46022CE8
:102FE00002D0B4F5803F00D104E040F23A6108A07D
:102FF00001F0C2FE2DB10E48006820430C49086064
:1030000004E00B480068A0430949086070BD000057
:103010002E2E5C2E2E5C2E2E5C44726976657273A9
:103020005C48414C5C7372635C7263632E630000A6
:10303000400C004010B50446022C02D0B4F5803F8D
:1030400000D104E040F24C7105A001F095FE4FF074
:1030500080400069204008B1012010BD0020FCE73D
:103060002E2E5C2E2E5C2E2E5C4472697665727359
:103070005C48414C5C7372635C7263632E63000056
:1030800070B504460D461F2D00D804E04FF49F7123
:103090000AA001F071FE2CB1012C03D0022C01D04A
:1030A000032C00D104E040F23F1104A001F064FEC3
:1030B00044EA05200949086070BD00002E2E5C2EF0
:1030C0002E5C2E2E5C447269766572735C48414CAE
:1030D0005C7372635C7263632E630000200C0040BB
:1030E00070B504460D46012C02D00CB1022C00D163
:1030F00004E040F2C51108A001F03EFE25B144F005
:1031000010000D49086005E00B48006820F0100031
:103110000949086070BD00002E2E5C2E2E5C2E2EFC
:103120005C447269766572735C48414C5C7372638F
:103130005C7263632E630000700C004010B502489F
:1031400000F082FD10BD0000B0AC0120704700000F
:1031500010B5024800F078FD10BD0000B0AC0120B1
:10316000704700000848007918B10420074908702A
:1031700008E00548807800060349C97800EB014063
:103180000349086070470000248001201C80012052
:103190002C80012010B500F081FB10BD10B501F0AE
:1031A000CDF801210804FFF73BF900211848FEF78C
:1031B0008FFE01211648FEF77FFE00211448FEF71E
:1031C00023FE01211248FEF713FE0120FFF702FC47
:1031D00010201049086000210E48C16101200D49EE
:1031E000C86010210B480161042141610A498161D5
:1031F00001200849C871084600F0EAFB0120074990
:10320000086000204860084600F0F8FC10BD00008F
:10321000001C0840E8820120001B374B0080012081
:1032200010B5024800F04AFD10BD0000B4AF012007
:1032300010B5024800F042FD10BD0000B4AF0120FF
:1032400010B5024800F03AFD10BD0000B4AF0120F7
:1032500010B5024800F032FD10BD0000B4AF0120EF
:1032600010B5024800F02AFD10BD0000B4AF0120E7
:1032700010B5024800F022FD10BD0000B4AF0120DF
:1032800010B504460E48844211D00D4820308442C7
:103290000DD00C4884420AD00A482030844206D01F
:1032A0000948844203D008482030844200D103E01A
:1032B000DE2106A001F060FD0120E06010BD0000ED
:1032C0000000814000C00041004081402E2E5C2E55
:1032D0002E5C2E2E5C447269766572735C48414C9C
:1032E0005C7372635C74696D2E63000010B50446F4
:1032F0000CB9012010BD0020FDF7A0FDFDF7E2FD97
:1033000094F8250010B1204600F01EF8002084F843
:10331000250000BFEEE710B5044694F8250002280A
:1033200003D12046216988470CE00320FDF780FD8A
:1033300000210320FDF794FD032084F8250020469A
:1033400000F038F810BD000010B5044600214FF41D
:103350008070FFF795F8352001F0D0FC352000286B
:1033600017DB00F01F02012191400B4A430942F88C
:10337000231000BF00BF00BFBFF34F8F00BF00BFCF
:1033800000BF00BF00BF00BFBFF36F8F00BF00BF13
:1033900000BF00BF10BD000080E100E0002101611E
:1033A000816280F825108161C16101624160C16064
:1033B0008160704710B504462046FFF7EFFF2046B6
:1033C000FFF794FF02200149088010BD46800120CC
:1033D000014609B902207047B1F1007F01D10420F4
:1033E000F9E7B1F1806F01D10820F4E7B1F1C06FC6
:1033F00001D10C20EFE7B1F1006F01D10E20EAE717
:10340000B1F1206F01D11020E5E74FF0FF30E2E786
:10341000F8B504460020009044F6206794F8481060
:10342000012000FA01F594F84810000200FA01F6B4
:103430003046FEF703F880B13046FDF7A7FF60B1D4
:1034400000224FF480412068FEF778F83046FDF7FF
:10345000BFFE606C40F0010060642846FDF7EEFF9F
:1034600098B32846FDF792FF78B32846FDF7B0FEE3
:1034700094F8310005281AD100224FF40041206849
:10348000FEF75CF800224FF480412068FEF756F802
:103490002846FDF79DFE3046FDF79AFE012084F890
:1034A0003100206C10B12046216C8847F8BD002205
:1034B0004FF400412068FEF741F8012084F8310004
:1034C000A06B10B12046A16B8847606CF8B1606CAE
:1034D00000F00100B0B1052084F83100002120681F
:1034E000FDF7C2FE00BF0098401C0090B84200D912
:1034F00004E02068FDF706FF0028F4D100BF01209A
:1035000084F83100E06B10B12046E16B884700BFC2
:10351000CCE7000070B5044600F0BAF9064625462F
:1035200015F1020F02D205480078054400BF00F0F3
:10353000AFF9801BA842FAD370BD0000448001207F
:10354000017801F0080129B11C49096841F0010125
:103550001A4A1160018901F4007129B117490968FB
:1035600041F00201154A1160017D01F0010129B10C
:103570001249096841F00401104A1160017E01F00E
:10358000010151B104210E4A82F891101146D1F87F
:10359000941041F00201C2F89410017F01F0010182
:1035A00051B10421064A82F891101146D1F89410C5
:1035B00041F00101C2F8941070470000E48201203C
:1035C000A8B5012070B5054600202860002414E04D
:1035D000012000FA04F10020FEF75CFA01280AD16C
:1035E0000121A140286808432860012000FA04F165
:1035F0000020FEF797F8601CC4B2102CE8DB2846C8
:10360000FFF79EFF70BD70B505460020686000247E
:1036100012E0012000FA04F1FEF73CFA012809D17A
:103620000121A140686808436860012000FA04F1A4
:10363000FEF778F8601CC4B2102CEADB2846FFF7CE
:103640007FFF70BD70B505460020A860002414E01F
:10365000012000FA04F10220FEF71CFA01280AD129
:103660000121A140A8680843A860012000FA04F1E4
:103670000220FEF757F8601CC4B2102CE8DB284685
:10368000FFF75EFF70BD70B505460020E8600024BE
:1036900014E0012000FA04F10320FEF7FBF90128F1
:1036A0000AD10121A140E8680843E860012000FA3E
:1036B00004F10320FEF736F8601CC4B2102CE8DBDE
:1036C0002846FFF73DFF70BD70B505460020286114
:1036D000002414E0012000FA04F10420FEF7DAF9D6
:1036E00001280AD10121A14028690843286101204D
:1036F00000FA04F10420FEF715F8601CC4B2102C87
:10370000E8DB2846FFF71CFF70BD10B5044601201A
:10371000E0610420FEF76CF82046FFF711FF10BDB2
:1037200010B504460120A0610220FEF761F8204692
:10373000FFF706FF10BD10B5044601206061FEF7DB
:1037400057F82046FFF7FCFE10BD2DE9F04707466D
:10375000894614469A460026002535E08020A06060
:103760001020206007EB45202146FEF759FB50460C
:1037700000F06BF88046B8F1030F02D10320BDE8DA
:10378000F08714E0761C032E01D90120F7E71520FD
:10379000FEF704FA3046FEF7E1FA032E02D10020CC
:1037A0002060A06007EB45202146FEF739FB14207E
:1037B000FEF736FA0128E5D01520FEF7EFF96FF491
:1037C0004010FEF7CBFA6D1C4D45C7D300F002F850
:1037D0000020D4E710B500BF0220FFF72BFC002823
:1037E000FAD01F20FEF7DAF910BD2DE9F84F054693
:1037F0000E4691469A46DDF828B000241FE006EBFD
:10380000C401CDF800A005EBC400D1E900733A462D
:10381000FEF73EFA584600F018F8032801D1BDE83B
:10382000F88F0820FEF7FCF9012804D10920FEF7E3
:10383000B5F90120F3E70920FEF7B0F9641C4C4507
:10384000DDD3FFF7C7FF0020E9E710B5044600BF4E
:103850001D20FEF7E5F9012803D0201EA4F1010484
:10386000F6D10CB1002010BD0320FCE770B5044672
:103870000D4629462046FEF739FB70BD0021416008
:10388000016101600121C1604161002181607047D7
:103890000148006870470000348001200348006838
:1038A00003490978084401490860704734800120C1
:1038B0004480012038B50446FEF7F8FF00900098D8
:1038C00020B101280AD003281AD111E0FEF7D2FF57
:1038D0002249B1FBF0F02249086019E0FEF740FFF1
:1038E0000546FEF7C7FFB5FBF0F01D4908600FE085
:1038F000FEF7C0FF1949B1FBF0F01949086007E075
:10390000FEF7B8FF1549B1FBF0F01549086000BF9C
:1039100000BF134800681349B0FBF1F0124908607A
:10392000124800784FF47A71B1FBF0F00C49096845
:10393000B1FBF0F5284600F09FF908B1012038BD31
:10394000082C07D221464FF0FF3001F001FA084859
:10395000046001E00120F2E70020F0E7001BB7005F
:103960003880012040420F003C800120448001202B
:103970004080012010B5044694F82900022802D1A5
:103980002046A169884794F82900032802D12046DF
:10399000E169884710BD704710B50446032160688F
:1039A000FEF724FDE068401CE060D4E90210884284
:1039B0000DD101206074002201216068FEF724FD12
:1039C00000216068FEF714FD2046FFF7E4FF10BDFC
:1039D00070B504460CB9012070BD20681E2800D8BF
:1039E00003E04A2178A001F0C7F9207800F0020036
:1039F000022838D1FEF75AFF30B1FEF757FF0128F1
:103A00000BD1FEF7A5FE40B90020FEF767FE0128A6
:103A100029D1607938BB0120DEE76079FEF7DAFF53
:103A2000607980B1FFF734FF054606E0FFF730FF0D
:103A3000401B022801D90320CEE70020FEF74EFEEE
:103A40000028F3D00FE0FFF723FF054606E0FFF75D
:103A50001FFF401B022801D90320BDE70020FEF70D
:103A60003DFE0028F3D1207800F00800082825D179
:103A7000A079FEF7E3FFA07980B1FFF709FF0546C3
:103A800006E0FFF705FF401B022801D90320A3E74A
:103A90000320FEF723FE0028F3D00FE0FFF7F8FE27
:103AA000054606E0FFF7F4FE401B022801D903207B
:103AB00092E70320FEF712FE0028F3D1207800F0F1
:103AC000040004282AD1217A2079FEF797FF207973
:103AD00090B1FFF7DDFE054608E0FFF7D9FE401B79
:103AE00041F28831884201D9032075E70420FEF7AE
:103AF000F5FD0028F1D011E0FFF7CAFE054608E009
:103B0000FFF7C6FE401B41F28831884201D90320ED
:103B100062E70420FEF7E2FD0028F1D1207800F0F2
:103B2000100010284DD1FEF7C1FE012847D0E079E2
:103B300080B3E06910B1E069012800D103E0CA2137
:103B400021A001F019F9E06910B92A49A16107E043
:103B5000E069012802D12749A16101E02649A1615C
:103B60000020FEF77DFFFFF793FE054606E0FFF716
:103B70008FFE401B022801D903202DE70220FEF70B
:103B8000ADFD0028F3D104F10C00FEF77BFFFEF73A
:103B900085FD16E0FFE70020FEF762FFFFF778FEE5
:103BA000054606E0FFF774FE401B022801D90320FA
:103BB00012E70220FEF792FD0028F3D101E0012078
:103BC0000AE7002008E700002E2E5C2E2E5C2E2E29
:103BD0005C447269766572735C544D435F447269EC
:103BE000766572735C7372635C746D635F7263633A
:103BF0002E630000001B374B00803B4B10B5044682
:103C00000CB9012010BD206828B90020FEF766FD20
:103C1000A0B90120F6E72068032805D10120FEF7AE
:103C20005DFD58B90120EDE72068012805D102208B
:103C3000FEF754FD10B90120E4E700BFD4E900010C
:103C4000FFF71EFA0020DDE710B5044694F82D00BA
:103C5000032802D12046E169884794F82D00042802
:103C600002D12046A169884794F82D00052802D189
:103C70002046216A884710BD70B504462546681E57
:103C8000B0F1807F01D301200FE0681E4FF0E021EA
:103C9000486107214FF0FF3001F05AF800204FF043
:103CA000E021886107200861002070BD0249096891
:103CB000491C014A116070475C82012010B504461E
:103CC0002068FFF7DDFA012020722046FFF7EEFFA3
:103CD00010BD70472DE9F04704462068C56920688B
:103CE0000768206886684FF00009CA4605F00F088B
:103CF000B8F1000F26D105F0200018B307F020001E
:103D000010B906F08050E8B106F08050A8B16168A3
:103D1000486AFFF75DFB00F0FF09B9F1000F0FDD06
:103D20004FF0000A06E0204600F0DCFB0AF101003B
:103D300000F0FF0ACA45F6DB02E0204600F0D2FBA5
:103D4000BDE8F087B8F1000F54D03D48304018B9B5
:103D500007F4907000284DD005F0010048B107F439
:103D6000807030B1012021680862606B40F0010072
:103D7000606305F0020048B106F0010030B1022096
:103D800021680862606B40F00400606305F0040085
:103D900048B106F0010030B1042021680862606B70
:103DA00040F00200606305F0080078B107F02000E1
:103DB00028B906F0805010B906F0010030B1082093
:103DC00021680862606B40F008006063606B80B13E
:103DD00005F0200040B107F0200010B906F0805037
:103DE00010B1204600F07EFB2046FFF772FF002056
:103DF0006063A5E705F0800048B107F0800010B9C6
:103E000006F4000018B1204600F0A0FB98E705F08A
:103E1000400030B107F0400018B1204600F04AFBE6
:103E20008EE705F4000040B107F0804028B120681B
:103E3000006820F080402168086000BF80E7000033
:103E40000100001070477047704710B504461C21F0
:103E5000206800F013FC01282BD1052084F82D00E8
:103E60000421206800F00AFC012800D12063082109
:103E7000206800F003FC012801D1042020631021F8
:103E8000206800F0FBFB012801D102202063002202
:103E90001F21206800F028FC1C21206800F090FB06
:103EA00000220121206800F0B1FB2046FFF7CCFF83
:103EB00010BD0121206800F0E1FB012802D120465D
:103EC00000F046FD0221206800F0D8FB012802D155
:103ED000204600F0F1FC00BFEAE710B504460CB93B
:103EE000012010BD94F82C0010B194F82D0010B9E9
:103EF000204600F00DF8D4E9000100F029FC002074
:103F00002063012084F82C0084F82D000020E8E7CD
:103F100010B586B0044601214020FEF773FB1E4910
:103F20002068884217D16846FFF7A8FC4FF4C040CC
:103F30000090022001900320029069461748FFF785
:103F400095FC03220D211548FEF792F803220E215D
:103F50001248FEF78DF801210420FEF753FB0121E2
:103F60000820FEF78DFA01210846FEF759FA2920AC
:103F700000F0D2FE292000F0DDFE282000F0CCFE6B
:103F8000282000F0D7FE032000F0C6FE032000F03A
:103F9000D1FE06B010BD000000C080400084014189
:103FA00070470021016380F82C10816241628161B9
:103FB000C16080F82D100162C161416101617047EB
:103FC000704710B50446042084F891000220FDF7E4
:103FD0002DFB012808D10220FDF712FBD4F8940034
:103FE00040F48050C4F894000120FDF71FFB012825
:103FF00007D1FDF705FBD4F8940040F40050C4F855
:1040000094000420FDF712FB012808D10420FDF7DD
:10401000F7FAD4F8940040F48040C4F894002046A5
:1040200000F05EF810BD10B5044694F8910008B990
:10403000012010BD00210420FDF7E8FA0021022034
:10404000FDF7E4FA00210120FDF7E0FA0020FDF77A
:104050000BFB0020FDF7F6FA0020EAE710B5044656
:1040600094F8910008B9012010BD0020FCF74AFF28
:1040700000210420FDF7E0FB0020F5E710B5044621
:1040800094F8910008B9012010BD0021012000F032
:1040900023FD0021022000F01FFD0021042000F07C
:1040A0001BFD0021082000F017FD0021102000F06A
:1040B00013FD0021202000F00FFD0021402000F022
:1040C0000BFD0021802000F007FD00210120FEF7FC
:1040D000C7F800210220FEF7C3F80020D4E7000053
:1040E00010B5044601202D490870D4F8940000F45E
:1040F000005020B9D4F8940000F4805010B120464C
:10410000FFF791FFD4F8940000F4806020B9D4F850
:10411000940000F4006010B1204600F0EFF8D4F8ED
:10412000940000F4807020B9D4F8940000F400707A
:1041300010B1204600F0D2F8D4F8940000F001004D
:10414000C0B9D4F8940000F0020098B9D4F89400F3
:1041500000F0040070B9D4F8940000F0080048B9E9
:10416000D4F8940000F0100020B9D4F8940000F0C6
:10417000200010B12046FFF781FFD4F8940000F032
:10418000010010B12046FFF769FFD4F8940000F059
:10419000020010B12046FFF761FF10BD60820120D0
:1041A00010B50446042084F891000120FEF7C0F801
:1041B000012808D1D4F8940040F48070C4F8940029
:1041C000012000F02DFD0220FEF7B2F8012808D1F1
:1041D000D4F8940040F40070C4F89400022000F079
:1041E0001FFD0120FEF7E0F8012808D1D4F8940063
:1041F00040F48060C4F89400012000F029FD022002
:10420000FEF7D2F8012808D1D4F8940040F40060F9
:10421000C4F89400022000F01BFD0120FEF74CF8CA
:10422000012836D100F0F0FC012808D1D4F8940020
:1042300040F00100C4F89400012000F047FC022087
:1042400000F0E2FC012808D1D4F8940040F002000C
:10425000C4F89400022000F039FC102000F0D4FCD7
:10426000012808D1D4F8940040F01000C4F894005C
:10427000102000F02BFC202000F0C6FC012808D103
:10428000D4F8940040F02000C4F89400202000F0FE
:104290001DFC0220FEF710F801281BD1402000F081
:1042A000B3FC012808D1D4F8940040F04000C4F8D1
:1042B0009400402000F00AFC802000F0A5FC0128BA
:1042C00008D1D4F8940040F08000C4F89400802015
:1042D00000F0FCFB2046FFF703FF10BD10B50446BD
:1042E00094F8910008B9012010BD00210320FDF7CA
:1042F000EFFF002000F09AFC0020F5E710B504461F
:1043000094F8910008B9012010BD00210320FEF7A8
:104310001BF8002000F0A2FC002000F0B1FC0020FF
:10432000F2E710B50446206800F0D6FC20B1206802
:1043300000F0C0FC0320207210BD70470CB50021B6
:1043400001910091002046490868096841F48031D4
:10435000434A11601146096841F0080111600021CB
:10436000009108E00099890301F100510968019169
:104370000099491C009100991029F3D30021009164
:1043800008E0384A009902EB01310968019100996F
:10439000491C009100990229F3D33349096801911E
:1043A0003249096801913249096841F00201304AF5
:1043B00011600021009109E02D493031097801F0A8
:1043C000020101B905E00099491C009100990A29F0
:1043D000F2D300BF2649096821F00101244A116087
:1043E00023490831096841F00201214A083211606D
:1043F0000021009109E01E493031097801F00101E6
:1044000001B905E00099491C009100990A29F2D3ED
:1044100000BF17490831096821F00101144A083228
:10442000116047F60571134A11601349096801913B
:1044300012490968019112490968019111490968F5
:1044400001911149096801911049096801911049C8
:104450000968019100211160014908600CBD00004C
:10446000300C004000300021005000210064002189
:10447000001C084010DC0A40000009200010092040
:1044800000200920002409200028092000300920EC
:104490000038092010B50248FFF7D7FC10BD000016
:1044A000C0AF012010B50248FFF7CFFC10BD0000DF
:1044B000C0AF01200168096821F4907102681160A1
:1044C0000168896821F0010102689160012180F88A
:1044D0003110704710B50248FFF7FCFB10BD00001B
:1044E000A4B201202DE9F0410446A78C2068406A5F
:1044F00086B260688068B0F5805F0AD16068006944
:1045000038B9A56906EA07002880A069801CA06167
:1045100003E0A269501CA0611670206A401E206250
:1045200088B92068006820F49070216808602068CD
:10453000806820F0010021688860012084F8310043
:104540002046FFF77FFC0020BDE8F08170B50446EF
:1045500060688068B0F5805F0CD16068006948B918
:10456000E5682888C0F3080021688862E068801C3C
:10457000E06005E0E168481CE06008782168886236
:104580006069401E60616069B8B92068006800F029
:10459000005030B12068806820F4000021688860F5
:1045A00005E02068006820F0800021680860012094
:1045B00084F830002046FFF746FC002070BD000064
:1045C00070B504460D460748844202D0064884422E
:1045D00000D104E040F22F1104A000F0CDFB606890
:1045E00070BD000000C08040008000412E2E5C2E77
:1045F0002E5C2E2E5C447269766572735C48414C69
:104600005C7372635C756172742E630070B50446EE
:104610000D4616460F48844202D00F48844200D10E
:1046200004E040F241110DA000F0A6FB012D01D0E5
:10463000022D00D104E04FF4A17108A000F09CFB12
:104640001EB1606A2843606202E0606AA84360624B
:1046500070BD000000C08040008000412E2E5C2E06
:104660002E5C2E2E5C447269766572735C48414CF8
:104670005C7372635C756172742E630070B504467E
:104680000D460F48844202D00E48844200D104E017
:104690004FF48C710CA000F06FFB25F01F0000B9E7
:1046A00004E040F2191108A000F066FB20692840E0
:1046B00020B1206A284008B9012070BD0020FCE725
:1046C00000C08040008000412E2E5C2E2E5C2E2EDD
:1046D0005C447269766572735C48414C5C737263CA
:1046E0005C756172742E630070B504460D46164603
:1046F0000D48844202D00D48844200D103E0FB21E2
:104700000BA000F039FB25F01F0000B903E0FC21ED
:1047100007A000F031FB1EB1206AA843206202E02E
:10472000206A2843206270BD00C0804000800041A4
:104730002E2E5C2E2E5C2E2E5C4472697665727372
:104740005C48414C5C7372635C756172742E6300EB
:104750002DE9F04F87B081460C46002006903E4878
:10476000814502D03D48814500D103E099213CA01C
:1047700000F002FBA06810B1A068012800D103E09E
:104780009A2137A000F0F8FA207B022804D0207B81
:1047900010B1207B062800D103E09C2130A000F05E
:1047A000EBFAFEF707F840080690206802F03BFAA3
:1047B0000022334BCDE9000102F048FACDE90201B5
:1047C000069802F030FA0546DDE9022302F0A6F869
:1047D00000222C4BCDE9040102F036FB074601F024
:1047E000C3FF8246504602F075FDC0B2C9F808000A
:1047F000D9F80C0020F00600C9F80C00504602F071
:1048000069FD400900F0F800A1680843217B0843D6
:10481000C9F80C00504602F05DFD1FFA80FB5846B7
:1048200002F078FD5146039002F088FE4FF082417D
:10483000049002F0B7FD059002F0F0FB074600225D
:10484000114B01F0C3FF054602F0C0F9C0B2C9F830
:10485000140007B0BDE8F08F00C080400080004128
:104860002E2E5C2E2E5C2E2E5C4472697665727341
:104870005C48414C5C7372635C756172742E6300BA
:10488000000030400000F03F0000E03F10B5074856
:1048900000F054F805480649486006480860084694
:1048A000FFF77FFB0248FFF718FB10BD20B7012080
:1048B000ECB6012000C0804010B504462068406876
:1048C000A1690870A069401CA061206A401E206296
:1048D000206A50B900221E212068FFF705FF012041
:1048E00084F82D002046FFF75BFB002010BD000080
:1048F00070B504460D460748844202D006488442FB
:1049000000D104E040F2711104A000F035FA2560F6
:1049100070BD000000C08040008000412E2E5C2E43
:104920002E5C2E2E5C447269766572735C48414C35
:104930005C7372635C756172742E63004FF4E131D5
:104940000160002101710121816000210173704724
:1049500010B50446E068007821680860E068401CF3
:10496000E0606069401E6061606950B90022012109
:104970002068FFF7B9FE012084F82C002046FFF7DD
:104980001FFB002010BD0FB400B5A1B023A80090FC
:1049900001A8009A229901F0DBFE0020009001A8F6
:1049A00000F0CEFB21B05DF814FB0000332000289E
:1049B00007DB00F01F02012191400C4A430942F835
:1049C000231000BF3320002809DB00F01F02012163
:1049D00091404209920002F1E022C2F8001100BFAA
:1049E00000F018F801E000F051F8FCE780E200E088
:1049F00010B50648406800F0010030B100F036FC08
:104A000001F014F801200249087010BD00408041F7
:104A10000E80012010B501210804FEF7DDFA1948C7
:104A2000006840F002001849C1F808010846D0F8B3
:104A30000C0140F40050C1F80C010846D0F80C01FC
:104A400040F48030C1F80C0101210846FEF748FB14
:104A5000002400E0641C642CFCDB0B48806840F4FC
:104A6000801009498860002403E000BF00BF00BF38
:104A7000641C0A2CF9DB072002490839086001F0A0
:104A800071FC10BD084180410040804110B500F02C
:104A900043FD0B480078012802D10A49087002E062
:104AA00000200849087007480078FBF779FD0548A1
:104AB0000078012802D102200149087010BD0000D1
:104AC000098001200F8001207047000001498863A0
:104AD0007047000000000740012949D100F00102A1
:104AE0002AB1484A126B42F00102464B1A6300F0A9
:104AF00002022AB1434A126B42F00202414B1A638E
:104B000000F004022AB13F4A126B42F004023D4B0E
:104B10001A6300F008022AB13A4A126B42F0080206
:104B2000384B1A6300F010022AB1364A126B42F079
:104B30001002344B1A6300F020022AB1314A126B82
:104B400042F020022F4B1A6300F040022AB12D4A96
:104B5000126B42F040022B4B1A6300F08002002AD5
:104B60004ED0284A126B42F08002264B1A6347E06F
:104B700000F001022AB1234A126B22F00102214BFC
:104B80001A6300F002022AB11E4A126B22F00202DE
:104B90001C4B1A6300F004022AB11A4A126B22F06D
:104BA0000402184B1A6300F008022AB1154A126B6E
:104BB00022F00802134B1A6300F010022AB1114AC6
:104BC000126B22F010020F4B1A6300F020022AB180
:104BD0000C4A126B22F020020A4B1A6300F04002CA
:104BE0002AB1084A126B22F04002064B1A6300F009
:104BF00080022AB1034A126B22F08002014B1A6331
:104C0000704700000000074001460448806B0840E0
:104C100008B1012070470020FCE7000000000740B9
:104C2000014948627047000000000740012806D192
:104C30000649096A41F00101044A116205E003498D
:104C4000096A21F00101014A116270470000074022
:104C5000014948617047000000000740012806D163
:104C60000649096941F00201044A116105E003495E
:104C7000096921F00201014A1161704700000740F3
:104C8000012806D10649096941F00101044A116170
:104C900005E00349096921F00101014A11617047EA
:104CA0000000074010B50248FFF77AFA10BD000077
:104CB000A8B5012006490968064A1143044A116053
:104CC0000121C1601146096801F0010111607047BE
:104CD000008C824051E5CC1A0146486900F0010081
:104CE00008B1012070470020FCE7000010B5024821
:104CF000FFF717FB10BD0000C0B60120002807DB3E
:104D000000F01F0201219140024A430942F823109A
:104D10007047000080E200E0002807DB00F01F027F
:104D200001219140024A430942F8231070470000D4
:104D300080E200E0002809DB00F01F020121914021
:104D40004209920002F1E022C2F80011704700000F
:104D500010B5002804DB4A07130E054A135406E079
:104D60004A07140E034A00F00F031B1FD45410BD52
:104D700000E400E018ED00E000BFFEE72DE9F0419F
:104D800007460C46164600252E4821680160217909
:104D90000171721F611D2C48FBF795FF29480078AF
:104DA000FF2806D127484078102802D10420BDE80A
:104DB000F0812448C178807801EB00202349086005
:104DC000002023490870FCF7ADF81E48407884287D
:104DD0000FD01C484078562821D11A48C07800F0DE
:104DE000B000102805D01748C07800F0B000902817
:104DF00015D11748007890B91248007940B94FF49E
:104E0000807211492046FBF75EFF4FF4807506E083
:104E10000C48057902790C492046FBF754FF0D48F0
:104E20000B490978425C2846691C8DB22254094915
:104E300007480078401C0A5C2846691C8DB2225441
:104E40002846B4E72480012020830120208001200F
:104E50001C800120AC770010024601207047000042
:104E600001460020014A1070902070470880012000
:104E700010B50346054804681460848894808079DE
:104E800090710120024C2070072010BD3A7600106E
:104E90000880012010B50446012010BD10B502465F
:104EA00000201368B3FBF1F401FB14301368B3FB6B
:104EB000F1F3136010BD00001CB5FDF78FF9002061
:104EC0000190009001A8FDF769F99DF804100BA06E
:104ED000FFF759FD6846FDF767F99DF80000452882
:104EE00007D19DF800100CA0FFF74DFD0EA0FFF7B5
:104EF0004AFD124C00E0A047FDE7000054484D3346
:104F00003620312E3320424C56657273696F6E2005
:104F10003D202523780D0A0043686970204944200C
:104F20003D202523780D0A0054484D333620312E7C
:104F3000332044656D6F2121210D0A00AD49001019
:104F40002DE9FF4FA7B004460E469846DDE9347AB6
:104F5000369D282266A10AA8FBF7FAFE28226EA138
:104F60006846FBF7F5FE05F0400008B1684600E032
:104F70000AA8149005F0100008B125F00105B8F159
:104F8000020F02DBB8F1240F03DD00202BB0BDE8D7
:104F9000F08F05F0010008B1302000E020202690BD
:104FA0004FF0000B05F00200B0B12998002806DA96
:104FB0004FF02D0B2998404229907F1E0CE005F000
:104FC000040018B14FF02B0B7F1E05E005F0080020
:104FD00010B14FF0200B7F1E05F0200040B1B8F15A
:104FE000100F01D1BF1E03E0B8F1080F00D17F1EE2
:104FF0004FF00009299830B93022484609F10109DB
:1050000015A90A540EE00AE0414629A8FFF746FF19
:1050100014990A5C484609F1010915A90A5429980E
:105020000028F1D1D14500DDCA46A7EB0A0705F0FB
:10503000110048B904E0B44201D820202070641C5B
:10504000381EA7F10107F6DCBBF1000F04D0B44213
:1050500001D884F800B0641C05F02000B8B1B8F1A4
:10506000080F05D1B44201D830202070641C0EE036
:10507000B8F1100F0BD1B44201D830202070641C5D
:10508000B44203D8149890F821002070641C05F0F5
:10509000100048B904E0B44201D826982070641C7E
:1050A000381EA7F10107F6DC04E0B44201D8302035
:1050B0002070641C5046AAF1010A4845F5DC06E060
:1050C000B44203D815A810F809002070641CB9F187
:1050D0000000A9F10109F3DC04E0B44201D820206A
:1050E0002070641C381EA7F10107F6DC20464DE74E
:1050F000303132333435363738396162636465664E
:105100006768696A6B6C6D6E6F70717273747576B7
:105110007778797A00000000303132333435363711
:1051200038394142434445464748494A4B4C4D4E25
:105130004F505152535455565758595A0000000079
:1051400010B5044612E000BF0A48006900F00100F3
:105150000028F9D020780A2803D10D210548FFF74F
:10516000C7FB14F8011B0348FFF7C2FB2078002897
:10517000E9D110BD00C080400146002009E00B6865
:105180005A1C0A601A7800EB800302EB4302A2F17A
:1051900030000A681278034B9A5C02F00402002A7D
:1051A000EDD17047C077001010B502460B4611468E
:1051B00000E0491C181EA3F1010302D00878002862
:1051C000F7D1881A10BD00002DE9F04107460D46C1
:1051D000144600262146384600F062FB06460EB90A
:1051E000BDE8F081AE420ADA0C4901EB0710406AD3
:1051F00040F400700A4602EB071148620BE0A67803
:10520000607800EB06200A30401B86B261193246F6
:10521000384600F073FB00BFE2E700000040804129
:1052200010B50446012C07D10C4A4021FFF7CCFFF2
:1052300001200B49087010E0022C0ED108480078BC
:1052400002280AD1074802880749022000F0DEFB45
:105250000020044908800249087010BD6043002105
:10526000098001200A8001204042002110B57448C5
:10527000006AC0F309247248006A00F001000028A7
:1052800050D06F48406A20F400706D49486208466B
:10529000406A20F48070486201206949203108701A
:1052A0006748C068000C674948806548C068000AC4
:1052B00048706348C068087061480069000CC88085
:1052C0005F480069888060485D49C8625D48007831
:1052D00000F0400040B95B48007800F0200018B9A9
:1052E000012058490872AAE05648007800F04000B2
:1052F00040B95448007800F0200018B1012051490D
:1053000048729CE04F48007800F040000028EAD046
:105310004C48007800F020000028E4D101204949E1
:1053200088728CE04648006A00F0020008B304B3BB
:1053300002204349203108704148406A40F48060AF
:105340003F49486200BF3E48006A00F00400002860
:10535000F9D004203A49203108703948406A20F4D5
:105360000070374948620846406A40F480704862DD
:1053700065E03348006A00F00200B0B333480088AB
:10538000002833DD02202E49203108702C48006AA5
:1053900000F0040010B3042008702948406A00F4AB
:1053A000007080B92648406A00F4807058B12448E3
:1053B000406A20F40070224948620846406A40F47E
:1053C000807048620AE01E48406A20F400701C4960
:1053D00048620846406A20F4807048621B48028890
:1053E0001949002000F012FB29E0FFE71448006A89
:1053F00000F0020078B102201149203108701048F5
:10540000406A20F400700E4948620846406A40F441
:105410008070486213E00A48006A00F0040070B12E
:1054200004200749203108700548406A20F40070C4
:10543000034948620846406A40F48070486210BDE3
:105440000040804114830120004000210C80012095
:10545000154A526A42F40062134B5A621A46D062ED
:105460000A07120E104B22331A700A110E4B83F8E2
:105470002320402909DA1A46526A22F400725A623D
:105480001A46526A42F480725A6200BF064A126A91
:1054900002F00202002AF9D00222034B20331A70D4
:1054A000024A014BDA62704700408041004000210F
:1054B00070B505460C4624B900212846FFF7C8FF01
:1054C00026E023E0402C08DD40212846FFF7C0FFFE
:1054D000A4F1400084B2403518E0402C11D1E1B273
:1054E0002846FFF7B5FFE001FEF714F80948006A07
:1054F00000F0040018B900212846FFF7A9FF002496
:1055000004E0E1B22846FFF7A3FF0024002CD9D124
:1055100070BD0000004080412DE9F041FF24224889
:10552000406800F4803000B31F48406840F4803089
:105530001D4948601D480078A8B108468768806802
:1055400040F480108860002504E000BF00BF00BF69
:10555000681CC5B2052DF8DB134880683843124932
:105560008860FFF757FABDE8F0810F48406886B2BF
:1055700096B100240DE00120A040304038B1022C4B
:1055800004D10B480078022800D104E003E0601C3D
:10559000C4B20D2CEFDB00BF0D2C02DA2046FFF762
:1055A0003FFE00BFDFE70000004080410E80012089
:1055B0000980012010B55C485C4948625C4848633A
:1055C0005C4848645A4848655A4848665A4848679B
:1055D00056498431086056485449C1F894005548EA
:1055E0005249A431086052485049B43108605148CA
:1055F0004E49C43108604E484C49D43108604D488A
:105600004A49E43108604021002000F02DFA402191
:10561000012000F029FA4021022000F025FA402163
:10562000032000F021FA4021042000F01DFA40215F
:10563000052000F019FA4021062000F015FA40215B
:10564000072000F011FA4021082000F00DFA402157
:10565000092000F009FA40210A2000F005FA402153
:105660000B2000F001FA40210C2000F0FDF92F483A
:10567000406B20F480102D4948630846406C40F48C
:10568000801048640846406D20F480104865084644
:10569000406E40F4801048660846406F20F4801049
:1056A00048670846D0F8840040F48010C1F88400B0
:1056B0000846D0F8940020F48010C1F89400084601
:1056C000D0F8A40040F48010C1F8A4000846D0F837
:1056D000B40020F48010C1F8B4000846D0F8C4002B
:1056E00040F48010C1F8C4000846D0F8D40020F47B
:1056F0008010C1F8D4000846D0F8E40040F48010CF
:10570000C1F8E4000846406940F0800048610B4859
:10571000C8620B48C8630B48C8640846806840F0FC
:105720000100886010BD0000010C010000408041B4
:105730000006230000063300000650000040002150
:105740006043002140420021F0B50C46534E06EB69
:1057500000156D6AC5F302460825B540ABB24F4E41
:1057600006EB0015EC6232BB0025374607EB00164E
:1057700086F821503E4606EB00152D6A45F40025BB
:1057800007EB00163562002100E0491C434E06EB92
:1057900000152D6A05F4002515B1B1F5801FF4D36D
:1057A0003E4E06EB00152D6A45F00105374607EB26
:1057B0000016356270E06DE0384E06EB00152D6A7C
:1057C00045F00105374607EB001635623E4606EB0D
:1057D00000156D6A45F4007507EB0016756200BF91
:1057E0002E4E06EB00156D6A05F40075002DF7D1FD
:1057F0009A421DDD374607EB001686F8213000215E
:1058000000E0491C254E06EB00152D6A05F4002525
:1058100015B1B1F5801FF4D3D51AAAB21F4E06EB0D
:105820000015ED6A1D44374607EB0016F56231E0BE
:105830009A4213D1194F07EB001686F82130002148
:1058400000E0491C154E06EB00152D6A05F40025F5
:1058500015B1B1F5801FF4D300221BE00F4F07EB09
:10586000001686F821203E4606EB00152D6A45F409
:10587000002507EB00163562002100E0491C074EA9
:1058800006EB00152D6A05F4002515B1B1F5801F52
:10589000F4D30022002A8FD1F0BD000000408041E7
:1058A0002DE9F04104460D4600BF134901EB0410F9
:1058B000006A00F001000028F7D001EB0410076A2D
:1058C000C7F3072601EB0410006A40F001000A4606
:1058D00002EB04110862114601EB0410C06AA842F1
:1058E00006D002EB0410C16A32462846FBF7EBF9FA
:1058F0003046BDE8F0810000004080412DE9F041D4
:10590000034600240025DFF800C10CEB0310406AB9
:10591000C0F3024C082000FA0CF086B272B9DFF82E
:10592000E8C00CEB0310406A40F40070E04608EB5E
:10593000031CCCF824000020BDE8F081DFF8C8C0CB
:105940000CEB0310C1620CEB0310406A40F40070D2
:10595000E04608EB031CCCF824004BE000BFDFF866
:10596000A8C00CEB0310006A00F001000028F6D07C
:105970000CEB0310076AC7F309250CEB0310006A50
:1059800040F00100E04608EB031CCCF82000B542D3
:1059900013D1C4460CEB0310C06A304408EB031C5F
:1059A000CCF82C00C4460CEB0310406A40F40070A5
:1059B00008EB031CCCF824001AE0002D0CDDDFF806
:1059C00048C00CEB0310406A40F40070E04608EB5E
:1059D000031CCCF824000BE0DFF82CC00CEB031008
:1059E000406A40F40070E04608EB031CCCF8240049
:1059F000601984B29442B1D1DFF80CC00CEB0310F3
:105A0000C162204698E700000040804170B506461C
:105A10000C46154626B929462046FFF749FD04E005
:105A20002A4621463046FFF78FFE70BD10B50C4860
:105A3000007A48B10A4949780A4A52F82100804759
:105A400000200749087209E00548407A30B104494E
:105A50004878FAF7F3FD00200149487210BD0000B4
:105A600014830120F876001010B502460C4C04EBAC
:105A70000213586A20F4E020102902D140F480304B
:105A800008E0402902D140F4403003E0202901D150
:105A900040F40030024C04EB0213586210BD0000C9
:105AA000004080415248006800F07F0000284AD042
:105AB0004F48006800F40010002844D04D4800789A
:105AC00070B900204C4908704948406A20F40070C1
:105AD000474948620846406A40F4807048627CE06A
:105AE0004448007801280BD14148406A20F40070F6
:105AF0003F4948620846406A40F4807048626CE062
:105B00003C480078022812D13A48808888280EDC68
:105B100000203A4908703648406A20F40070344941
:105B200048620846406A40F48070486255E0304858
:105B3000406A40F400702E4948620846406A20F4EA
:105B40008070486249E02A48006800F07F00002821
:105B500043D02848808800280BDD2548406A40F45F
:105B60000070234948620846406A20F48070486209
:105B700033E02048007870B900201F4908701C48A5
:105B8000406A20F400701A4948620846406A40F4AE
:105B90008070486221E01748007801280BD1144832
:105BA000406A20F40070124948620846406A40F496
:105BB0008070486211E00F48007802280DD1002063
:105BC0000E4908700A48406A20F40070084948628B
:105BD0000846406A40F4807048620748007828B957
:105BE0000348806820F080500149886070470000B9
:105BF0000040804114830120108001201180012089
:105C000010B5214821490A6802608A888280897912
:105C100081711F48027801461E48FBF754F81C4862
:105C200004781D490A78014609781A4BC8181A49A0
:105C3000FBF749F818480078044418490A781549D0
:105C400008191649FBF73FF8144800780444144932
:105C50000A78104908191249491CFBF734F8104812
:105C6000007804440F48C088A04202DB0E4804803C
:105C700003E00C48C0880C4908800B48028805499D
:105C80000020FFF7C3FE10BD128001206F770010C7
:105C9000C376001000400021417600104A760010C3
:105CA00080760010148301200C80012010B5144868
:105CB000006800F07F0080B11148006800F4001017
:105CC00058B101200F4908700F4908800846028822
:105CD0000C490020FFF79AFE10E00948006800F028
:105CE0007F0058B10020074908700120064908804C
:105CF0000846028803490020FFF788FE10BD000017
:105D000000408041004000210C80012010B5114866
:105D100040880412062C0FD2DFE804F00E030609B7
:105D20000C0D00F01BF813E0FFF76AFF10E000F025
:105D300025F90DE00CE00BE00748406A40F40070E4
:105D4000054948620846406A20F48070486200BFF6
:105D500000BF10BD148301200040804110B52248CF
:105D6000027801462148FAF7AEFF2148C0881E4953
